S0100000636C695F746573742E73726563BD
S3151C0008006F0040116F0000116F00C0106F00801048
S3151C0008106F0040106F0000106F00C00F6F00800F3C
S3151C0008206F00400F6F00000F6F00600E6F00800E90
S3151C0008306F00400E6F00000E6F00C00D6F00800D24
S3151C0008406F00400D6F00000D6F00C00C6F00800C18
S3151C0008506F00400C6F00000C6F00C00B6F00800B0C
S3151C0008606F00400B6F00000B6F00C00A6F00800A00
S3151C0008706F00400A6F00000A6F00C0096F008009F4
S3151C00088097910200938141B517E10400130181B4CD
S3151C0008900189731045307325403017050000130578
S3151C0008A065F6136515007310553097820200938206
S3151C0008B0623517D303001303233123A002009102D0
S3151C0008C0E3ED62FE02454C000146EFF061746F00D9
S3151C0008D0605D828000000000000000000000000037
S3151C0008E000000000000000000000000000000000E6
S3151C0008F000000000000000000000000000000000D6
S3151C00090001000100010001000100010001000100BD
S3151C00091001000100130181F806C216C41AC61EC8BE
S3151C00092022CA26CC2ACE2ED032D236D43AD63ED89D
S3151C00093042DA46DC4ADECEC0D2C2D6C4DAC6DEC82D
S3151C000940E2CAE6CCEACEEED0F2D2F6D4FAD6FED87D
S3151C000950F322003096DA97D2030083A2221923A031
S3151C000960220073252034F32510341356F50135CA9D
S3151C0009702EC08542FE0213837200631D6504978296
S3151C000980020083A2A226178302000323E325FD5E31
S3151C00099083230300032E430023A0D20123A2C201FA
S3151C0009A023A072009782020083A282D7B38E7200A4
S3151C0009B033BF7E00B30FEE012320D3012322F301A4
S3151C0009C017810200032181D5EF80100C29C1EF800D
S3151C0009D0702735A817810200032141D4EF40F05936
S3151C0009E03DA091052EC0AD4263195500178102002A
S3151C0009F00321C1D2EF80102519A8F32220347323BA
S3151C000A001034F3230030D5BFF3222034F5BF17D39F
S3151C000A1003000323A30D03210300824273901234A7
S3151C000A20D652739002309240A2423243C243524481
S3151C000A30E244724582551256A2563257C257525834
S3151C000A40E25872598649164AA64A364BC64B564C2C
S3151C000A50E64C764D865D165EA65E365FC65F130156
S3151C000A6081077300203013000000130000001300E0
S3151C000A700000130000001300000013000000130008
S3151C000A8000001300000013000000130000001300F8
S3151C000A9000001300000013000000130000001300E8
S3151C000AA000001300000013000000130000001300D8
S3151C000AB000001300000013000000130000001300C8
S3151C000AC000001300000013000000130000001300B8
S3151C000AD000001300000013000000130000001300A8
S3151C000AE00000130000001300000013000000130098
S3151C000AF0000013000000130000001300000001009A
S3151C000B00130181F806C216C41AC61EC822CA26CCF0
S3151C000B102ACE2ED032D236D43AD63ED842DA46DC4B
S3151C000B204ADECEC0D2C2D6C4DAC6DEC8E2CAE6CC1B
S3151C000B30EACEEED0F2D2F6D4FAD6FED8F3220030A4
S3151C000B4096DA97D2030083A262FA23A022007325A9
S3151C000B502034F32510342EC017810200032101BC5A
S3151C000B60EF808072E30505EAEF80D00D17D30300F2
S3151C000B700323C3F703210300824273901234D65217
S3151C000B80739002309240A2423243C2435244E24422
S3151C000B90724582551256A2563257C2575258E258BF
S3151C000BA072598649164AA64A364BC64B564CE64CD3
S3151C000BB0764D865D165EA65E365FC65F130181079F
S3151C000BC07300203013000000130000001300000007
S3151C000BD013000000130000001300000013000000A7
S3151C000BE01300000013000000130000001300000097
S3151C000BF01300000013000000130000001300000087
S3151C000C0017D10300032181EE024182403243C243C5
S3151C000C105244E244724582551256A2563257C25766
S3151C000C205258E25872598649164AA64A364BC64B42
S3151C000C30564CE64C764D865D165EA65E365FC65FE6
S3151C000C40D652A10273900230A24213018107828000
S3151C000C501300000013000000130000001300000026
S3151C000C601300000013000000130000001300000016
S3151C000C701300000013000000130000001300000006
S3151C000C8013000000130000001300000013000000F6
S3151C000C9013000000130000001300000013000000E6
S3151C000CA013000000130000001300000013000000D6
S3151C000CB013000000130000001300000013000000C6
S3151C000CC013000000130000001300000013000000B6
S3151C000CD013000000130000001300000013000000A6
S3151C000CE01300000013000000130000001300000096
S3151C000CF01300000013000000130000001300000086
S3151C000D00F322003093F272FF130380181203B3E22E
S3151C000D106200711523205500130585FA10C1211593
S3151C000D2023200500814263870200711523200500DC
S3151C000D30FD12D5BF71150CC1828000000000000099
S3151C000D400000000000000000000000000000000081
S3151C000D500000000000000000000000000000000071
S3151C000D600000000000000000000000000000000061
S3151C000D700000000000000000000000000000000051
S3151C000D800000000000000000000000000000000041
S3151C000D90B70701006374F5029307F00F13070002EF
S3151C000DA063E2A706B787021C93878738B387A70019
S3151C000DB003C507003305A74067800000B70700017D
S3151C000DC06372F502B787021C135505019387873892
S3151C000DD0B387A70003C50700130700013305A74007
S3151C000DE067800000B787021C1355850193878738D7
S3151C000DF0B387A70003C50700130780003305A74068
S3151C000E0067800000B787021C1355850093878738B7
S3151C000E10B387A70003C50700130780013305A74046
S3151C000E2067800000130101FF1305600023261100D3
S3151C000E30EF10005613051000EF40C010B797021CA8
S3151C000E4083A747BD130101FF1308060023261100C3
S3151C000E50930805001387050003A5C7001386060023
S3151C000E6063000802B787021C93878748B785021C54
S3151C000E709386080093858549EF008038EFF09FFA2A
S3151C000E803788021C93074849130848496FF01FFE10
S3151C000E90130101FF9306060013060000232611000A
S3151C000EA0EFF0DFF9130101FF9305000023248100F5
S3151C000EB02326110013040500EF204021B787021CCE
S3151C000EC003A507728327850263840700E780070052
S3151C000ED013050400EF40000713050000678000009F
S3151C000EE0130101FF2324810023261100130405008E
S3151C000EF02316B5002317C500232005002322050051
S3151C000F00232405002322050623280500232A050081
S3151C000F10232C050013068000930500001305C50548
S3151C000F20EF00C049B727001C9387C74F2322F40242
S3151C000F30B727001C938747552324F402B727001CA8
S3151C000F409387875D2326F402B727001C93870763C4
S3151C000F508320C100232084022328F4020324810059
S3151C000F601301010167800000B735001C9385C52459
S3151C000F706F0080371305000067800000130101FF16
S3151C000F8023229100930780069384F5FFB384F40211
S3151C000F902320210113890500232481002326110007
S3151C000FA093854407EF0040431304050063000502C4
S3151C000FB023200500232225011305C5002324A40094
S3151C000FC01386840693050000EF00403F8320C10072
S3151C000FD01305040003248100832441000329010016
S3151C000FE01301010167800000B787021C03A5077265
S3151C000FF06FF09FF7832785016396070A130101FF8C
S3151C001000B717001C2324810023261100938787F61B
S3151C0010102324F502B787021C83A70772232C050C11
S3151C001020232E050C2320050E130405006316F5005C
S3151C00103093071000232CF50013050400EF00C006CF
S3151C0010402322A40013050400EF0000062324A40099
S3151C00105013050400EF0040052326A40003254400C5
S3151C0010601306000093054000EFF09FE7032584005C
S3151C0010701306100093059000EFF09FE60325C400AD
S3151C0010801306200093052001EFF09FE5930710003F
S3151C0010908320C100232CF4000324810013010101C9
S3151C0010A06780000067800000130101FFB787021CE0
S3151C0010B02322910083A407722320210123261100D9
S3151C0010C083A7840123248100130905006396070066
S3151C0010D013850400EFF01FF29384840D03A484008F
S3151C0010E083A744009387F7FF63DA070083A70400EE
S3151C0010F06380070883A404006FF05FFE0317C40017
S3151C00110063140706B707FFFF9387170023220406FD
S3151C0011102320040023220400232404002326F40095
S3151C00112023280400232A0400232C04001306800011
S3151C001130930500001305C405EF004028232A04026A
S3151C001140232C040223240404232604048320C10024
S3151C0011501305040003248100832441000329010094
S3151C0011601301010167800000130484066FF09FF7CA
S3151C0011709305400013050900EFF05FE023A0A400CF
S3151C00118013040500E31805F69307C0002320F90095
S3151C0011906FF0DFFB6780000067800000678000003F
S3151C0011A067800000B797021C03A547BDB715001C36
S3151C0011B0938585ED6F004009B797021C03A547BDB3
S3151C0011C0B715001C938545F76F000008130101FC39
S3151C0011D02326D1029306C102232E11002328E102E5
S3151C0011E0232AF102232C0103232E11032326D100CB
S3151C0011F0EF0080428320C1011301010467800000B7
S3151C001200130101FC232AF102B797021C2324C102F5
S3151C001210138605009305050003A547BD2326D102A9
S3151C00122093068102232E11002328E102232C01039D
S3151C001230232E11032326D100EF00003E8320C1017B
S3151C0012401301010467800000130101FE232C810099
S3151C0012502328210123263101232251012320610148
S3151C001260232E1100232A9100232441019389050072
S3151C0012701304850D13090000930A1000130BF0FFCD
S3151C00128083248400032A4400130AFAFF635C0A02BF
S3151C00129003240400E31604FE8320C10103248101F8
S3151C0012A0832441018329C100032A8100832A41002A
S3151C0012B0032B010013050900032901011301010277
S3151C0012C06780000083D7C40063FCFA008397E400A0
S3151C0012D06388670113850400E78009003369A90048
S3151C0012E0938484066FF05FFA130101FD23248102A7
S3151C0012F023202103232E3101232C410123286101A4
S3151C001300232671012326110223229102232A51012D
S3151C00131013090500138A05001304850D93090000A3
S3151C001320130B1000930BF0FF83248400832A4400C4
S3151C001330938AFAFF63DE0A0203240400E31604FE02
S3151C0013408320C10203248102832441020329010252
S3151C001350032A8101832A4101032B0101832BC1002E
S3151C001360138509008329C10113010103678000004D
S3151C00137083D7C400637EFB008397E400638A7701EE
S3151C0013809385040013050900E7000A00B3E9A900C8
S3151C001390938484066FF0DFF913030500630E0600C1
S3151C0013A083830500230073001306F6FF1303130043
S3151C0013B093851500E31606FE6780000013030500DF
S3151C0013C0630A06002300B3001306F6FF130313007B
S3151C0013D0E31A06FE67800000130101FE232A910012
S3151C0013E09384350093F4C4FF23282101232E110076
S3151C0013F0232C810023263101938484009307C0008B
S3151C0014001309050063F6F4069304C00063E4B406EE
S3151C00141013050900EF20D00CB7E7031C03A7C7A8C8
S3151C0014209386070013040700631A040637E4031C9B
S3151C001430832784A8639A07009305000013050900F7
S3151C001440EF0050462324A4A8938504001305090025
S3151C001450EF0050459309F0FF631A350B9307C00044
S3151C0014602320F90013050900EF20D0076F000001A7
S3151C001470E3DE04F89307C0002320F90013050000DF
S3151C0014808320C10103248101832441010329010115
S3151C0014908329C10013010102678000008327040011
S3151C0014A0B387974063CE07041306B000637AF60031
S3151C0014B02320F4003304F400232094006F00000161
S3151C0014C083274400631A870223A6F6A8130509007E
S3151C0014D0EF2050011305B40093074400137585FFD4
S3151C0014E03307F540E30EF5F83304E400B387A74051
S3151C0014F02320F4006FF0DFF82322F7006FF01FFDA6
S3151C00150013070400032444006FF01FF21304350074
S3151C0015101374C4FFE30285FAB305A440130509003E
S3151C001520EF005038E31A35F96FF05FF38327860016
S3151C0015309387F7FF2324F60063DC07000327860145
S3151C00154063C6E7009307A0006394F5006F1090062E
S3151C0015508327060013850500138717002320E60042
S3151C0015602380B70067800000130101FE232C810035
S3151C001570232A9100232821012326310123244101FA
S3151C001580232E110013090500938905001304060078
S3151C001590B304D600130AF0FF63169400130500006B
S3151C0015A06F00C0018345040013860900130509005A
S3151C0015B0EFF0DFF713041400E31045FF8320C1018D
S3151C0015C00324810183244101032901018329C100CC
S3151C0015D0032A81001301010267800000832786000D
S3151C0015E0130101FF23248100232611001304060086
S3151C0015F063800702EF208003232404008320C1009C
S3151C00160023220400032481001301010167800000CA
S3151C001610130500006FF09FFE130101F8232C8106B1
S3151C001620232A91062328210723263107232E110658
S3151C001630232441072322510723206107232E7105EA
S3151C001640232C8105232A91052328A105930905002E
S3151C001650938405001309060013840600630805001D
S3151C0016608327850163940700EFF0DF98B787021C78
S3151C001670938787506394F41283A4490083D7C400CC
S3151C00168093F787006380071483A70401638C0712F2
S3151C00169093070002A300F10293070003232E010007
S3151C0016A02301F10223228100130B5002378A021CEC
S3151C0016B0930B1000B78A021C378C021CB71C001C2B
S3151C0016C013040900834704006384070063926715AB
S3151C0016D0330D24416306240393060D0013060900EB
S3151C0016E09385040013850900EFF01FE89307F0FFAC
S3151C0016F06300F5288327C101B387A701232EF100B8
S3151C00170083470400638607269307F0FF130914001A
S3151C00171023240100232A01002326F100232801008B
S3151C001720A3050104834509001306500013058A52BC
S3151C001730EF2000558327810013041900631E050C36
S3151C00174013F707016306070013070002A305E1044C
S3151C00175013F78700630607001307B002A305E1040D
S3151C001760834609001307A0026386E60C8327410102
S3151C0017701304090093060000130690001305A0002D
S3151C0017800347040093051400130707FD6376E61050
S3151C001790638E060A232AF1006F00400BB787021CD2
S3151C0017A09387874E6396F40083A489006FF01FED20
S3151C0017B0B787021C9387874CE392F4EC83A4C90079
S3151C0017C06FF0DFEB9385040013850900EF1080781A
S3151C0017D0E30005EC1305F0FF8320C10703248107F2
S3151C0017E083244107032901078329C106032A81068D
S3151C0017F0832A4106032B0106832BC105032C810575
S3151C001800832C4105032D0105130101086780000087
S3151C001810130414006FF01FEB13078A523305E540BF
S3151C0018203395AB00B3E7A7002324F100130904008A
S3151C0018306FF05FEF0327410093064700032707005D
S3151C0018402322D10063400704232AE1000347040036
S3151C0018509307E0026316F708034714009307A002D8
S3151C001860631AF704832741001304240013874700D7
S3151C00187083A707002322E10063CA07022326F1007F
S3151C0018806F0000063307E04093E72700232AE10098
S3151C0018902324F1006FF09FFBB387A7021384050076
S3151C0018A093061000B387E7006FF09FED9307F0FFD8
S3151C0018B06FF0DFFC130414002326010093060000BE
S3151C0018C093070000130690001305A00003470400AD
S3151C0018D093051400130707FD6372E608E39006FAE6
S3151C0018E0834504001306300013850A53EF20403944
S3151C0018F06302050293870A533305F540832781004B
S3151C001900130700043317A700B3E7E70013041400FA
S3151C0019102324F100834504001306600013054C5371
S3151C0019202300B102EF20C0351307410093868C5665
S3151C001930138604009305810013850900EF0000211E
S3151C0019409307F0FF130914006304F5028327C101F2
S3151C001950B387A700232EF1006FF09FD6B387A7028B
S3151C0019601384050093061000B387E7006FF01FF67B
S3151C00197083D7C40093F70704E39E07E40325C1013C
S3151C0019806FF09FE5B797021C9306060013860500A9
S3151C0019909305050003A547BD6FF01FC8130101FD84
S3151C0019A0232C410183A70501130A070003A7850001
S3151C0019B02324810223229102232E3101232A510141
S3151C0019C023261102232021032328610123267101CA
S3151C0019D0930905001384050093040600938A0600E8
S3151C0019E063D4E7009307070023A0F40003473404DD
S3151C0019F0630607009387170023A0F40083270400BF
S3151C001A0093F707026388070083A7040093872700C0
S3151C001A1023A0F4000329040013796900631E09003E
S3151C001A20130B9401930BF0FF8327C40003A7040038
S3151C001A30B387E7406342F90883473404B336F000A2
S3151C001A408327040093F707026390070C13063404DC
S3151C001A5093850A0013850900E7000A009307F0FF27
S3151C001A606308F506832704001306400003A7040039
S3151C001A7093F767008326C400930400006398C7008D
S3151C001A80B384E64063D404009304000083278400D7
S3151C001A90032704016356F700B387E740B384F400B9
S3151C001AA0130900001304A401130BF0FF639024090F
S3151C001AB0130500006F0000029306100013060B00AE
S3151C001AC093850A0013850900E7000A00631A75034B
S3151C001AD01305F0FF8320C1020324810283244102E3
S3151C001AE0032901028329C101032A8101832A410199
S3151C001AF0032B0101832BC100130101036780000026
S3151C001B00130919006FF05FF23307D40013060003A4
S3151C001B10A301C7040347540493871600B307F400B4
S3151C001B2093862600A381E7046FF05FF293061000EC
S3151C001B301306040093850A0013850900E7000A00B2
S3151C001B40E30865F9130919006FF05FF6130101FD2F
S3151C001B50232481022322910223202103232E3101D7
S3151C001B6023261102232C4101232A5101232861011A
S3151C001B7083C8850193078007930405001384050019
S3151C001B80130906009389060063EE170193072006C6
S3151C001B909386350463EE1701638408289307800532
S3151C001BA06388F822930A2404230114056F00400459
S3151C001BB09387D8F993F7F70F13065001E364F6FEE3
S3151C001BC03786021C9397270013064656B387C70011
S3151C001BD083A707006780070083270700938A2504CD
S3151C001BE09386470083A707002320D7002381F5048B
S3151C001BF0930710006F00802683A7050003250700A6
S3151C001C0013F607089305450063060602832705009D
S3151C001C102320B7003788021C63D807001307D0029D
S3151C001C20B307F040A301E404130808551307A000EA
S3151C001C306F00800613F60704832705002320B700D0
S3151C001C40E30A06FC9397070193D707416FF09FFCA5
S3151C001C5003A605008327070013750608938547000E
S3151C001C60630805002320B70083A707006F00400107
S3151C001C70137606042320B700E30806FE83D7070065
S3151C001C803788021C1307F006130808556388E814E6
S3151C001C901307A000A3010404032644002324C40044
S3151C001CA0634806008325040093F5B5FF2320B40082
S3151C001CB063960700938A060063040602938A06004D
S3151C001CC033F6E702938AFAFF3306C800034606007A
S3151C001CD02380CA0013860700B3D7E702E372E6FE29
S3151C001CE0930780006314F7028327040093F71700F9
S3151C001CF0638E0700032744008327040163C8E7009B
S3151C001D0093070003A38FFAFE938AFAFFB386564104
S3151C001D102328D40013870900930609001306C10063
S3151C001D209305040013850400EFF05FC7130AF0FF48
S3151C001D30631C45131305F0FF8320C1020324810293
S3151C001D4083244102032901028329C101032A81013B
S3151C001D50832A4101032B0101130101036780000043
S3151C001D6083A7050093E7070223A0F5003788021C0A
S3151C001D70930880071308C853A302140503260400FE
S3151C001D80832507001375060883A705009385450060
S3151C001D90631A05001375060463060500939707016D
S3151C001DA093D707012320B700137716006306070095
S3151C001DB0136606022320C40013070001E39C07ECEC
S3151C001DC0032604001376F6FD2320C4006FF09FEC57
S3151C001DD03788021C130808556FF01FFA130780007A
S3151C001DE06FF05FEB03A605008327070083A545015B
S3151C001DF01378060813854700630A08002320A700EA
S3151C001E0083A7070023A0B7006F0080012320A7002B
S3151C001E101376060483A70700E30606FE2390B70085
S3151C001E2023280400938A06006FF0DFEE8327070041
S3151C001E3003A6450093050000938647002320D70080
S3151C001E4083AA070013850A00EF109063630605003A
S3151C001E50330555412322A400832744002328F4007C
S3151C001E60A30104046FF01FEB8326040113860A00EA
S3151C001E709305090013850400E7800900E30C45EB74
S3151C001E808327040093F72700639407048327C10064
S3151C001E900325C400E352F5EA138507006FF0DFE95A
S3151C001EA09306100013860A00930509001385040087
S3151C001EB0E7800900E30065E9130A1A008327C400BA
S3151C001EC00327C100B387E740E34CFAFC6FF01FFC05
S3151C001ED0130A0000930A9401130BF0FF6FF01FFE08
S3151C001EE0130101FF232481001384050083A505002B
S3151C001EF02322910023261100930405006384050008
S3151C001F00EFF01FFE93050400032481008320C1000B
S3151C001F101385040083244100130101016F10D05C5A
S3151C001F20B797021C83A747BD638CA7168327450258
S3151C001F30130101FE232C8100232E1100232A91005C
S3151C001F40232821012326310113040500638407027B
S3151C001F5083A7C7009304000013090008639E070E9D
S3151C001F608327440283A50700638605001305040026
S3151C001F70EF10905783254401638605001305040062
S3151C001F80EF10905683254402638605001305040052
S3151C001F90EF10905583258403638605001305040002
S3151C001FA0EF1090548325C4036386050013050400B3
S3151C001FB0EF10905383250404638605001305040063
S3151C001FC0EF1090528325C40E63860500130504008A
S3151C001FD0EF1090518325840E6386050013050400BB
S3151C001FE0EF10905083278404638A070083A5870813
S3151C001FF06386050013050400EF10104F8325440368
S3151C0020006386050013050400EF10104E8327840118
S3151C002010638A07068327840213050400E7800700EA
S3151C0020208325840D638005061305040003248101A2
S3151C0020308320C10183244101032901018329C10095
S3151C002040130101026FF0DFE9B385950083A5050036
S3151C00205063900502938444008327440283A5C7002A
S3151C002060E39424FF13050400EF1010486FF05FEF94
S3151C00207083A9050013050400EF101047938509007A
S3151C0020806FF01FFD8320C1010324810183244101BC
S3151C002090032901018329C100130101026780000085
S3151C0020A067800000130101FF232481002322910075
S3151C0020B013040500B7E4031C138505002326110031
S3151C0020C023A804A8EF20107F9307F0FF6318F500E0
S3151C0020D083A704A9638407002320F4008320C1007E
S3151C0020E00324810083244100130101016780000041
S3151C0020F02320150023228500232495002326250151
S3151C00210023283501232A4501232C5501232E65013D
S3151C0021102320750323228503232495032326A50345
S3151C0021202328B503232A2502130500006780000017
S3151C0021308320050003244500832485000329C5004C
S3151C00214083290501032A4501832A8501032BC50121
S3151C002150832B0502032C4502832C8502032DC50205
S3151C002160832D05030321450313B515003305B5005F
S3151C0021706780000083274504639A0704130101FF47
S3151C002180930500082324810023261100130405004F
S3151C002190EFF08FA4930705002322A4041305F0FF78
S3151C0021A0638E070013850700938707082320050005
S3151C0021B013054500E31CF5FE130500008320C10032
S3151C0021C00324810013010101678000001305000030
S3151C0021D067800000130101FF2322910023261100B2
S3151C0021E023248100232021019307F0019304050079
S3151C0021F063FAB700930760012320F5001305F0FF6F
S3151C0022006F0080028327450413840500130906000A
S3151C0022106388070283A7440413142400B38787002A
S3151C00222003A5070023A027018320C10003248100E6
S3151C002230832441000329010013010101678000006A
S3151C002240EFF05FF3E30805FC6FF05FFB130101FE83
S3151C002250232C8100232E11009307F0011304050083
S3151C00226063F0B702930760012320F5001305F0FF06
S3151C0022708320C10103248101130101026780000030
S3151C0022808327450413860500638A070013972500D8
S3151C002290B387E70003A707006316070213050400AC
S3151C0022A02326C100EF00C017930505001305040083
S3151C0022B0032481010326C1008320C10113010102ED
S3151C0022C06F0000119306100013050000E302D7FAF5
S3151C0022D09306F0FF631AD700930760012320F400CE
S3151C0022E0130510006FF0DFF81385050023A0070007
S3151C0022F0E7000700130500006FF09FF79307F00136
S3151C00230063F6B7001305F0FF6780000083274504BA
S3151C002310130101FF2324810023229100232611008F
S3151C00232093040500138405006384070403A744046F
S3151C00233093172400130510003307F70083270700A3
S3151C002340638E07029306F0FF130520006388D702ED
S3151C00235093061000130530006382D7021305040090
S3151C00236023200700E7800700130500006F0000010B
S3151C002370EFF05FE0E30C05FA1305F0FF8320C100C4
S3151C002380032481008324410013010101678000009E
S3151C002390B797021C9305050003A547BD6FF01FEBFD
S3151C0023A0B797021C138605009305050003A547BDB8
S3151C0023B06FF05FE2B797021C03A547BD6FF09FDB6A
S3151C0023C0B797021C9305050003A547BD6FF01FF3C5
S3151C0023D0130101FF2324810023229100130405000D
S3151C0023E0B7E4031C1385050093050600232611007C
S3151C0023F023A804A8EF20D0419307F0FF6318F5002B
S3151C00240083A704A9638407002320F4008320C1004A
S3151C002410032481008324410013010101678000000D
S3151C0024206F20103B130101F6232AF108B707008021
S3151C00243093C7F7FF232EF1002328F100B707FFFFF0
S3151C0024402326D1082324B100232CB100938787208F
S3151C0024509306C10893058100232E1106232AF10039
S3151C0024602328E108232C0109232E11092322D1003C
S3151C002470EF10105583278100238007008320C10796
S3151C0024801301010A67800000130101F6232AF108D3
S3151C002490B707008093C7F7FF232EF1002328F1000E
S3151C0024A0B707FFFF93878720232AF100B797021CE3
S3151C0024B02324A100232CA10003A547BD2324C10866
S3151C0024C02326D108138605009306810893058100EF
S3151C0024D0232E11062328E108232C0109232E11097A
S3151C0024E02322D100EF10D04D8327810023800700C3
S3151C0024F08320C1071301010A67800000130101FF35
S3151C00250023248100138405008395E50023261100EE
S3151C002510EF10D07E6340050283274405B387A700CE
S3151C002520232AF4048320C100032481001301010122
S3151C002530678000008357C40037F7FFFF1307F7FFB8
S3151C002540B3F7E7002316F4006FF0DFFD1305000058
S3151C0025506780000083D7C500130101FE232C810070
S3151C002560232A91002328210123263101232E110021
S3151C00257093F707109304050013840500130906003E
S3151C00258093890600638A07008395E500930620005D
S3151C00259013060000EF10404F8357C40037F7FFFFA8
S3151C0025A01307F7FFB3F7E7008315E4002316F400BF
S3151C0025B0032481018320C1019386090013060900A7
S3151C0025C08329C100032901011385040083244101C9
S3151C0025D0130101026F00D012130101FF2324810095
S3151C0025E0138405008395E50023261100EF10C049CE
S3151C0025F09307F0FF0357C4006312F502B7F7FFFFFA
S3151C0026009387F7FFB3F7E7002316F4008320C10076
S3151C002610032481001301010167800000B717000025
S3151C0026203367F7002316E400232AA4046FF01FFE69
S3151C0026308395E5006F00D03C0346050083C6050064
S3151C00264013051500938515006314D600E31606FEC4
S3151C0026503305D640678000009307050003C70700B3
S3151C00266093871700E31C07FE3385A7401305F5FF68
S3151C00267067800000630C06021306F6FF13070000B2
S3151C002680B307E500B386E50083C7070083C60600CB
S3151C0026906394D7006316C7003385D7406780000054
S3151C0026A013071700E39E07FC6FF01FFF13050000BE
S3151C0026B067800000130101FEB797021C232A9100B4
S3151C0026C083A447BD232C8100232E110083A7840ECF
S3151C0026D01304050063920708130500052326B100A1
S3151C0026E0EF10005823A4A40E8325C1006310050215
S3151C0026F0B786021C3785021C9386C65B1306000030
S3151C002700930570051305455DEFE04FF32320050087
S3151C0027102322050023240500232605002328050063
S3151C002720232A0500232C0500232405022326050243
S3151C00273023280502232A0502232C0502232E050223
S3151C002740232005042322050423240504232605042B
S3151C002750230E050023220502130504000324810110
S3151C00276003A6840E8320C101832441019306100015
S3151C002770130101026F0040006316050003250600C5
S3151C002780630E0506930705001385070003C807009B
S3151C0027909387170013870500834807001307170044
S3151C0027A0639A08006318080223200600130500001C
S3151C0027B067800000E31218FFE39806FC2320F6004E
S3151C0027C02300050067800000930700006F0080024D
S3151C0027D06398060003C80700938717001387050034
S3151C0027E08346070013071700E314D8FEE30E08FC04
S3151C0027F0A38F07FE2320F600678000006780000079
S3151C002800930610006FF05FF7130101FD3787021C5A
S3151C0028102322910223202103232C4101232A510127
S3151C002820232481012326110223248102232E310114
S3151C0028302328610123267101232291012320A10152
S3151C002840130C0500138A0500930A0600138906005B
S3151C00285093840500130717619386040003C40400C0
S3151C00286093841400B307E40083C7070093F787001B
S3151C002870E39407FE9307D002631CF41003C4040000
S3151C002880130B1000938426006302091C9307000196
S3151C0028906314F902930700036310F40283C7040050
S3151C0028A01307800593F7F70D639AE71803C4140002
S3151C0028B01309000193842400B709008093C9F9FF0A
S3151C0028C0930BFBFFB3093B01135DF941130609008A
S3151C0028D093060D0013850B0093850900EF20C01C81
S3151C0028E093060D00930C05001306090013850B00B7
S3151C0028F093850900EF1050519308050013880500B5
S3151C00290093070000130500009305000013039000B5
S3151C00291093069001130EF0FF130704FD6378E30082
S3151C0029201307F4FB63E2E608130794FC635A2709B2
S3151C002930638AC7056362B8086394050163EEA8063B
S3151C0029406398A8006316B8009307F0FF63CCEC02EB
S3151C002950B38725033306AD02B305A9023306F60079
S3151C0029609357F7413335A902B305B70033B7E500D2
S3151C0029703306A600B387C70013850500B305F70009
S3151C002980930710009384140003C4F4FF6FF0DFF860
S3151C0029909307B002130B0000E318F4EE03C4040003
S3151C0029A0938426006FF05FEE1307F4F963EAE600E2
S3151C0029B0130794FA6FF09FF79307F0FF6FF09FFCD5
S3151C0029C01307F0FF6398E704930720022320FC00FB
S3151C0029D013850B0093850900639C0A048320C1029E
S3151C0029E00324810283244102032901028329C10194
S3151C0029F0032A8101832A4101032B0101832BC10078
S3151C002A00032C8100832C4100032D010013010103BB
S3151C002A1067800000630A0B003337A000B305B04083
S3151C002A20B385E5403305A040E38A0AFA63840700B0
S3151C002A30138AF4FF23A04A016FF05FFA1304000304
S3151C002A40E31C09E6130980006FF01FE793070003D8
S3151C002A50E306F4E41309A0006FF01FE66FF0DFDA5B
S3151C002A60B797021C930606001386050093050500FE
S3151C002A7003A547BD6FF05FD9B797021C93060600E6
S3151C002A80138605009305050003A547BD6FF0DFD728
S3151C002A90130101FD3787021C2322910223202103E7
S3151C002AA0232A5101232861012326710123261102A1
S3151C002AB023248102232E3101232C4101232481014D
S3151C002AC023229101930B0500938A0500130B060024
S3151C002AD01389060093840500130717619386040067
S3151C002AE003C4040093841400B307E40083C70700DF
S3151C002AF093F78700E39407FE9307D0026312F41042
S3151C002B0003C40400130C1000938426006304091AE2
S3151C002B10930700016314F902930700036310F40280
S3151C002B2083C704001307800593F7F70D639CE7160C
S3151C002B3003C414001309000193842400935CF94117
S3151C002B401306090093860C001305F0FF9305F0FF8E
S3151C002B50EF10902B93860C00130A05009389050031
S3151C002B60130609001305F0FF9305F0FFEF10D07351
S3151C002B70930605009307000013050000930500004B
S3151C002B809308900013089001130704FD63F8E800EE
S3151C002B901307F4FB6362E808130794FC635A2709BE
S3151C002BA063C4070863E2B90863943501636EAA0619
S3151C002BB06318AA006396B9009307F0FF63CCE6027C
S3151C002BC0B38725033386AC02B305A9023306F60088
S3151C002BD09357F7413335A902B305B70033B7E50060
S3151C002BE03306A600B387C70013850500B305F70097
S3151C002BF0930710009384140003C4F4FF6FF0DFF8EE
S3151C002C009307B002130C0000E312F4F003C4040093
S3151C002C10938426006FF09FEF1307F4F9636AE800AC
S3151C002C20130794FA6FF09FF79307F0FF6FF09FFC62
S3151C002C3063D607049307200223A0FB001305F0FFAD
S3151C002C409305F0FF631A0B048320C102032481023F
S3151C002C5083244102032901028329C101032A81011C
S3151C002C60832A4101032B0101832BC100032C810004
S3151C002C70832C41001301010367800000630A0C00CA
S3151C002C803337A000B305B040B385E5403305A040FB
S3151C002C90E30C0BFA63840700938AF4FF23205B0181
S3151C002CA06FF09FFA13040003E31A09E81309800066
S3151C002CB06FF0DFE893070003E304F4E61309A000B2
S3151C002CC06FF0DFE76FF0DFDCB797021C9306060098
S3151C002CD0138605009305050003A547BD6FF05FDB52
S3151C002CE0B797021C9306060013860500930505007C
S3151C002CF003A547BD6FF0DFD9130101F8232C81060C
S3151C002D00232A9106232E1106232821079304050046
S3151C002D1013040600635406029307B0082320F5002B
S3151C002D201305F0FF8320C107032481078324410771
S3151C002D3003290107130101086780000093078020FF
S3151C002D40231AF1002324B100232CB100138606009C
S3151C002D509307000093060700630404009307F4FF1F
S3151C002D601309F0FF93058100138504002328F10045
S3151C002D70232EF100231B2101EF10804463562501ED
S3151C002D809307B00823A0F400E30E04F88327810000
S3151C002D90238007006FF01FF9B797021C13870600E4
S3151C002DA093060600138605009305050003A547BD7B
S3151C002DB06FF09FF4130101FE232C8100232A91003E
S3151C002DC023282101232E11002326310193040500FB
S3151C002DD01389050013040600630805008327850173
S3151C002DE063940700EFE00FA1B787021C93878750F7
S3151C002DF0631EF40A03A44400832784012324F400DD
S3151C002E008357C40093F787006386070C8327040146
S3151C002E106382070C83270401032504009379F90FA9
S3151C002E201379F90F3305F54083274401634AF500EE
S3151C002E309305040013850400EF00C0726314050A91
S3151C002E4083278400130515009387F7FF2324F400BA
S3151C002E5083270400138717002320E40023803701EF
S3151C002E6083274401638CA7008357C40093F717007C
S3151C002E70638E07009307A000631AF90093050400EC
S3151C002E8013850400EF00006E631E05048320C10138
S3151C002E9003248101832441018329C10013050900F0
S3151C002EA0032901011301010267800000B787021C78
S3151C002EB09387874E6316F40003A484006FF0DFF338
S3151C002EC0B787021C9387874CE318F4F203A4C4004B
S3151C002ED06FF09FF29305040013850400EF00800732
S3151C002EE0E30A05F21309F0FF6FF05FFAB797021CAD
S3151C002EF0138605009305050003A547BD6FF09FEBE0
S3151C002F00130101FF232481002322910013040500D1
S3151C002F10B7E4031C138505009305060013860600FB
S3151C002F202326110023A804A8EF20C01F9307F0FF37
S3151C002F306318F50083A704A9638407002320F40003
S3151C002F408320C10003248100832441001301010155
S3151C002F5067800000130101FFB797021C2322910012
S3151C002F6083A447BD2324810023202101232611008D
S3151C002F701309050013840500638A040083A78401D2
S3151C002F806396070013850400EFE0CF86B787021C03
S3151C002F9093878750631EF40203A444008317C4005E
S3151C002FA01397070193F6870013570701639A0608C0
S3151C002FB09376070163920604130790002320E90009
S3151C002FC093E707042316F4001305F0FF6F00000DAA
S3151C002FD0B787021C9387874E6316F40003A48400EC
S3151C002FE06FF0DFFBB787021C9387874CE318F4FA54
S3151C002FF003A4C4006FF09FFA13774700630C070203
S3151C00300083254403638C0500930744046386F500FB
S3151C00301013050900EF00504D232A04028357C400F0
S3151C0030202322040093F7B7FD2316F400832704011B
S3151C0030302320F4008357C40093E787002316F4006B
S3151C00304083270401639007028357C40013070020DB
S3151C00305093F707286388E700930504001305090006
S3151C003060EF0010318317C4001397070193F617005E
S3151C0030701357070163800604832644012324040096
S3151C003080B306D040232CD40083260401130500006C
S3151C0030906396060013770708E31407F28320C10022
S3151C0030A0032481008324410003290100130101012B
S3151C0030B067800000937627001306000063940600C1
S3151C0030C0032644012324C4006FF01FFC130101FDD9
S3151C0030D0B787021C2326710183AB0772232A510171
S3151C0030E02328610123248101232611022324810222
S3151C0030F02322910223202103232E3101232C41015B
S3151C00310023229101130B0500938A0500130C100052
S3151C00311083A48B046380040203A4440083A984084B
S3151C0031201309F4FF13142400338A890033848400A2
S3151C003130635C09028320C1020324810283244102A9
S3151C003140032901028329C101032A8101832A410122
S3151C003150032B0101832BC100032C8100832C41000E
S3151C003160130101036780000063800A02639A090049
S3151C0031701309F9FF130ACAFF1304C4FF6FF05FFBA0
S3151C0031808327CA07E39657FF03A7440083274400F7
S3151C0031901307F7FF631E270323A22401E38A07FCF8
S3151C0031A083AC4400638A090083A6091033172C01DB
S3151C0031B0B376D70063920602E780070003A7440094
S3151C0031C083A78B04E31697F5E384F4FA6FF05FF498
S3151C0031D0232204006FF09FFC83A649108325CAFF97
S3151C0031E03377D7006318070013050B00E780070029
S3151C0031F06FF0DFFC13850500E78007006FF01FFCEE
S3151C003200130101FF232481002322910013040500CE
S3151C003210B7E4031C138505002326110023A804A864
S3151C003220EF10504E9307F0FF6318F50083A704A90F
S3151C003230638407002320F4008320C100032481003B
S3151C003240832441001301010167800000130101FF63
S3151C00325023261100232481002322910023202101EF
S3151C00326063920502130900008320C1000324810018
S3151C00327083244100130509000329010013010101E0
S3151C003280678000009304050013840500630805008D
S3151C0032908327850163940700EFD0DFD5B787021C0F
S3151C0032A093878750631AF40803A444008317C40049
S3151C0032B0E38A07FA9305040013850400EF00400B0C
S3151C0032C08327040313090500638C07008325040266
S3151C0032D013850400E7800700635405001309F0FFFB
S3151C0032E08357C40093F707086388070083250401E6
S3151C0032F013850400EF00501F83254403638C0500CF
S3151C003300930744046386F50013850400EF00D01D63
S3151C003310232A04028325840463880500138504007C
S3151C003320EF00901C23240404EFD0DFE623160400D0
S3151C003330EFD09FE66FF05FF3B787021C9387874E2B
S3151C0033406316F40003A484006FF05FF6B787021CB3
S3151C0033509387874CE31CF4F403A4C4006FF01FF599
S3151C003360B797021C9305050003A547BD6FF01FEE1A
S3151C00337083D7C500130101FE232C8100232A91004B
S3151C003380232E1100232821012326310113F7870040
S3151C00339093040500138405006312071603A7450052
S3151C0033A0634AE00003A705046346E000130500001A
S3151C0033B06F0040120327C402E30A07FEB71600007B
S3151C0033C003A90400B3F7D70023A004006380070CED
S3151C0033D0032544058357C40093F74700638E0700F3
S3151C0033E0832744003305F54083274403638607007F
S3151C0033F0832704043305F5408327C402832504026E
S3151C003400130605009306000013850400E7800700D9
S3151C0034109307F0FF0357C4006312F50283A604004A
S3151C0034209307D00163E6D70CB70740209387170094
S3151C003430B3D7D70093F71700638C070A83270401B9
S3151C003440232204002320F400B71700003377F7006B
S3151C003450630C07009307F0FF6316F50083A70400AF
S3151C00346063940700232AA4048325440323A0240170
S3151C003470E38E05F2930744046386F5001385040066
S3151C003480EF009006232A04026FF05FF283250402E4
S3151C003490930610001306000013850400E7000700BE
S3151C0034A09307F0FFE318F5F283A70400E38407F201
S3151C0034B01307D0016386E700130760016396E700D4
S3151C0034C023A024016FF09FEE8357C40093E70704E3
S3151C0034D02316F4008320C1010324810183244101A6
S3151C0034E0032901018329C100130101026780000021
S3151C0034F0136707042316E4006FF0DFFD83A905019B
S3151C003500E38609EA03A9050093F7370023A03501D2
S3151C00351033093941130700006394070003A74501CB
S3151C0035202324E400E35420E9832784028325040230
S3151C003530930609001386090013850400E78007001B
S3151C003540634CA0008357C4001305F0FF93E70704E0
S3151C0035502316F4006FF01FF8B389A9003309A9409C
S3151C0035606FF05FFC83A70501638A0708130101FE40
S3151C003570232C8100232E110013040500630C050067
S3151C00358083278501639807002326B100EFD09FA6E9
S3151C0035908325C100B787021C938787506392F50267
S3151C0035A0832544008397C500638007041305040024
S3151C0035B0032481018320C101130101026FF05FDB2B
S3151C0035C0B787021C9387874E6396F5008325840074
S3151C0035D06FF05FFDB787021C9387874CE394F5FC5D
S3151C0035E08325C4006FF01FFC8320C10103248101C5
S3151C0035F0130500001301010267800000130500007B
S3151C0036006780000093050500631C0500B787021C34
S3151C00361003A50772B735001C938545566FD0DFCCC2
S3151C003620B797021C03A547BD6FF0DFF383278600FF
S3151C0036306398070093070000138507006780000046
S3151C00364083D7C500130101FB2324810423202105F4
S3151C003650232C41032326110423229104232E3103F8
S3151C003660232A510323286103232671032324810360
S3151C003670232291032320A103232EB10193F7870054
S3151C0036801309050013840500130A06006382070E3E
S3151C00369083A70501638E070C8357C40083290A0080
S3151C0036A013F72700631A071693F71700638407207E
S3151C0036B0930B000013050000130B0000930A000077
S3151C0036C063820A366312050213860A009305A0005C
S3151C0036D013050B00EF00C05A938B1A0063060500F6
S3151C0036E013051500B30B6541138C0B0063F47A01AB
S3151C0036F0138C0A0003250400832704018326440136
S3151C00370063FCA73283248400B384960063D6843377
S3151C00371093050B0013860400EF00C0588327040092
S3151C0037209305040013050900B38797002320F400B2
S3151C003730EFF05FE363160516B38B9B401305100071
S3151C003740639A0B009305040013050900EFF09FE133
S3151C0037506318051483278A00330B9B00B38A9A408F
S3151C003760B38797402324FA00E39C07F46F00800676
S3151C0037709305040013050900EFF0CFFD9307F0FF36
S3151C003780E30C05F06F00400583AA090083A44900D9
S3151C00379093898900E38A04FE9386040063749B0064
S3151C0037A093060B00832784028325040213860A00D2
S3151C0037B013050900E78007006354A00E83278A00BF
S3151C0037C0B38AAA00B384A440B387A7402324FA0073
S3151C0037D0E39207FC930700008320C10403248104A1
S3151C0037E083244104032901048329C103032A810379
S3151C0037F0832A4103032B0103832BC102032C810261
S3151C003800832C4102032D0102832DC1011385070060
S3151C0038101301010567800000370B0080930A000026
S3151C00382093040000134B0BC06FF0DFF683AA09004C
S3151C00383003AD490093898900E30A0DFE8357C40032
S3151C003840032684000325040013F7072063060714C8
S3151C0038506362CD0C13F70748630E070A83244401E1
S3151C00386083250401B3049C02B30DB54013871D00C8
S3151C0038703307A701B3C4940363F4E400930407005D
S3151C00388093F707406382070E93850400130509000E
S3151C003890EFD09FB4631005049307C0002320F900E2
S3151C0038A08357C40093E707042316F4009307F0FF1D
S3151C0038B06FF09FF2370B0080934BEBFF930A0000CF
S3151C0038C0130D0000134BFBFF130C3000930C200050
S3151C0038D06FF09FF68325040113860D002326A10095
S3151C0038E0EFD09FAB0357C4008327C1001377F7B7EC
S3151C0038F0136707082316E4002328F400232A9400E0
S3151C003900B387B701B384B4412320F40013060D001A
S3151C0039102324940093040D006374CD0013060D003C
S3151C0039200325040093850A002326C100EF00803777
S3151C003930832784000326C100B387C7402324F400D1
S3151C00394083270400B387C7002320F40083278A003B
S3151C003950B38A9A00330D9D40B38797402324FA00FF
S3151C003960E39C07EC6FF01FE71386040013050900A0
S3151C003970EF00C04793070500E31005F883250401F3
S3151C00398013050900EF0040368357C40093F7F7F779
S3151C0039902316F4006FF05FF08327040163E6A7008B
S3151C0039A0832644016376DD04930406006374CD000C
S3151C0039B093040D001386040093850A00EF00802EE5
S3151C0039C08327840003270400B38797403307970097
S3151C0039D02324F4002320E400E39A07F6930504004D
S3151C0039E013050900EFF01FB8E30205F66FF05FEB55
S3151C0039F093070B0063E4AB0193070D00B3C7D70213
S3151C003A00032784028325040213860A001305090072
S3151C003A10B386D702E700070093040500E348A0F22B
S3151C003A206FF01FE803AB090083AA490013050000C9
S3151C003A30938989006FF0DFC86342DC028327840206
S3151C003A408325040213060B0013050900E7800700F3
S3151C003A5093040500E342A0CE6FF09FE413060C000E
S3151C003A6093050B00EF0000248327840093040C00AD
S3151C003A70B38787412324F40083270400B387870177
S3151C003A802320F4006FF05FCB130101FF2324810078
S3151C003A902322910013040500B7E4031C13850500BB
S3151C003AA093050600138606002326110023A804A8E6
S3151C003AB0EF1040589307F0FF6318F50083A704A97D
S3151C003AC0638407002320F4008320C10003248100A3
S3151C003AD0832441001301010167800000130101F9D1
S3151C003AE023248106138405008395E5002322910671
S3151C003AF0232021072326110693040600138906009A
S3151C003B0063DE05028357C40093F70708638E070418
S3151C003B1093070000130700048320C10603248106B3
S3151C003B202320F90023A0E40003290106832441066F
S3151C003B3013050000130101076780000013068100AE
S3151C003B40EF001021E34005FC0327C100B7F7000076
S3151C003B50B3F7E70037E7FFFFB387E70093B7170014
S3151C003B60130700406FF05FFB930700006FF05FFFC9
S3151C003B7083D7C500130101FE232C8100232E1100BF
S3151C003B80232A91002328210193F72700138405007B
S3151C003B9063880702930774042320F4002328F40087
S3151C003BA093071000232AF4008320C10103248101FA
S3151C003BB083244101032901011301010267800000CE
S3151C003BC09306C1001306810013090500EFF01FF1CF
S3151C003BD0832581009304050013050900EFD0CFFF50
S3151C003BE0631005028317C40013F70720E31E07FAA8
S3151C003BF093F7C7FF93E727002316F4006FF09FF98E
S3151C003C00B717001C938787F62324F9028357C40031
S3151C003C102320A4002328A40093E707082316F400F6
S3151C003C2083278100232AF4008327C10063820702AD
S3151C003C308315E40013050900EF009016630A0500BE
S3151C003C408357C40093F7C7FF93E717002316F400A6
S3151C003C508357C400B3E4F400231694006FF0DFF41A
S3151C003C60B797021C9305050003A547BD6FD0CFF679
S3151C003C70B797021C9305050003A547BD6F00C00638
S3151C003C8093F5F50F3306C5006316C5001305000032
S3151C003C906780000083470500E38CB7FE13051500FB
S3151C003CA06FF09FFE630C06021303050093061000BB
S3151C003CB0636AB5009306F0FF1307F6FF3303E300B0
S3151C003CC0B385E50083830500230073001306F6FF06
S3151C003CD03303D300B385D500E31606FE67800000C8
S3151C003CE067800000678000006380051083A7C5FFFE
S3151C003CF0130101FE232C8100232E11001384C5FF02
S3151C003D0063D407003304F4002326A100EFF05FFD03
S3151C003D1037E7031C8327C7A80325C1001306070022
S3151C003D20639E070023220400232687A803248101FF
S3151C003D308320C101130101026FF0DFFA6376F402DE
S3151C003D40832604003307D400639AE70003A7070001
S3151C003D5083A747003307D7002320E4002322F4005F
S3151C003D60232686A86FF09FFC1387070083A74700AE
S3151C003D7063840700E37AF4FE832607003306D70024
S3151C003D806318860203260400B386C6002320D700C8
S3151C003D903306D700E39CC7F803A6070083A7470092
S3151C003DA0B306D6002320D7002322F7006FF01FF896
S3151C003DB06378C4009307C0002320F5006FF01FF73B
S3151C003DC003260400B306C400639AD70083A6070023
S3151C003DD083A74700B386C6002320D4002322F40001
S3151C003DE0232287006FF09FF467800000130101FEF9
S3151C003DF0232C8100232E1100232A91002328210124
S3151C003E002326310113040600639205020324810153
S3151C003E108320C10183244101032901018329C10097
S3151C003E2093050600130101026FD00FDB6316060211
S3151C003E30EFF09FEB930400008320C1010324810152
S3151C003E40032901018329C100138504008324410130
S3151C003E501301010267800000138905009309050000
S3151C003E60EF00C07893040900E37885FC93050400F1
S3151C003E7013850900EFD04FD693040500E30E05FA0F
S3151C003E809305090013060400EFD00FD19305090012
S3151C003E9013850900EFF05FE56FF01FFA130101FEB1
S3151C003EA02328210103A98500232C81002326310107
S3151C003EB023244101232E1100232A91002322510180
S3151C003EC02320610113840500130A0600938906004A
S3151C003ED063EE260983D7C50013F707486306070850
S3151C003EE0032744019304300083A50501B384E4022F
S3151C003EF013072000832A0400130B0500B38ABA405B
S3151C003F00B3C4E402138716003307570163F4E400B5
S3151C003F109304070093F707406386070A93850400FA
S3151C003F2013050B00EFD04FCB13090500630C050AD4
S3151C003F308325040113860A00EFD00FC68357C400DD
S3151C003F4093F7F7B793E707082316F40023282401F1
S3151C003F50232A940033095901B38454412320240194
S3151C003F60232494001389090063F429011389090089
S3151C003F70032504001306090093050A00EFF09FD2DF
S3151C003F808327840013050000B38727412324F400EC
S3151C003F9083270400B38727012320F4008320C10153
S3151C003FA00324810183244101032901018329C100C2
S3151C003FB0032A8100832A4100032B010013010102FD
S3151C003FC0678000001386040013050B00EFF01FE248
S3151C003FD013090500E31C05F68325040113050B00D4
S3151C003FE0EFF09FD09307C0002320FB008357C4002B
S3151C003FF01305F0FF93E707042316F4006FF01FFA6E
S3151C00400083278600130101FD232E3101232611026D
S3151C004010232481022322910223202103232C4101E4
S3151C004020232A51012328610123267101232481019E
S3151C004030232291012320A10193090600638A070EFE
S3151C004040832A0600130A050013840500130B0000BF
S3151C004050130D0000930B3000130C2000630A0D1087
S3151C0040600329840063662D098357C40013F7074888
S3151C004070630007088324440183250401832C040060
S3151C004080B3849B02B38CBC4013871C003307A70167
S3151C004090B3C4840363F4E4009304070093F7074056
S3151C0040A06380070E9385040013050A00EFD0CFB278
S3151C0040B0130905006306050E8325040113860C00EF
S3151C0040C0EFD08FAD8357C40093F7F7B793E7070874
S3151C0040D02316F40023282401232A9400330999016A
S3151C0040E0B3849441232024012324940013090D0036
S3151C0040F063742D0113090D00032504001306090022
S3151C00410093050B00EFF01FBA83278400B387274162
S3151C0041102324F40083270400B38727012320F400FB
S3151C00412083A78900B387A74123A4F90063920704D8
S3151C004130130500008320C1020324810223A2090067
S3151C00414083244102032901028329C101032A810117
S3151C004150832A4101032B0101832BC100032C8100FF
S3151C004160832C4100032D010013010103678000000D
S3151C00417003AB0A0003AD4A00938A8A006FF01FEE58
S3151C0041801386040013050A00EFF05FC61309050029
S3151C004190E31205F48325040113050A00EFF0DFB4CE
S3151C0041A09307C0002320FA008357C4001305F0FFB1
S3151C0041B093E707042316F40023A409006FF09FF766
S3151C0041C083D7C500130101F8232C8106232A9106E7
S3151C0041D02328210723263107232E110623244107D2
S3151C0041E02322510723206107232E7105232C8105C9
S3151C0041F0232A91052328A10593F70708930905008F
S3151C00420013890500930406001384060063860706BB
S3151C00421083A705016392070693050004EFD0CF9B85
S3151C0042202320A9002328A900631405049307C000B2
S3151C00423023A0F9001305F0FF8320C107032481077F
S3151C00424083244107032901078329C106032A810602
S3151C004250832A4106032B0106832BC105032C8105EA
S3151C004260832C4105032D01051301010867800000FD
S3151C00427093070004232AF90093070002A300F10206
S3151C00428093070003232E01002301F1022322810040
S3151C004290130B5002378A021C930B1000B78A021CA0
S3151C0042A0378C021CB74C001C138404008347040083
S3151C0042B0638407006398670D330D9440630694026C
S3151C0042C093060D0013860400930509001385090047
S3151C0042D0EFF0DFBC9307F0FF6306F5208327C101CF
S3151C0042E0B387A701232EF10083470400638C071EA6
S3151C0042F09307F0FF9304140023240100232A0100D2
S3151C0043002326F10023280100A305010483C504000C
S3151C0043101306500013058A52EFF09F9683278100DF
S3151C004320138414006314050613F7070163060700BC
S3151C00433013070002A305E10413F7870063060700B1
S3151C0043401307B002A305E10483C604001307A002E9
S3151C004350638CE60483274101138404009306000042
S3151C004360130690001305A0000347040093051400D0
S3151C004370130707FD637CE60863840604232AF10001
S3151C0043806F000004130414006FF05FF213078A52C7
S3151C0043903305E5403395AB00B3E7A7002324F100B2
S3151C0043A0930404006FF09FF6032741009306470011
S3151C0043B0032707002322D10063400704232AE100B8
S3151C0043C0034704009307E0026316F708034714002B
S3151C0043D09307A002631AF7048327410013042400E1
S3151C0043E01387470083A707002322E10063CA07023D
S3151C0043F02326F1006F0000063307E04093E72700F1
S3151C004400232AE1002324F1006FF09FFBB387A70248
S3151C0044101384050093061000B387E7006FF0DFF4E2
S3151C0044209307F0FF6FF0DFFC130414002326010032
S3151C0044309306000093070000130690001305A000C6
S3151C0044400347040093051400130707FD6372E6086F
S3151C004450E39006FA834504001306300013850A53BD
S3151C004460EFF01F826302050293870A533305F5405A
S3151C00447083278100130700043317A700B3E7E7005F
S3151C004480130414002324F100834504001306600062
S3151C00449013054C532300B102EFF08FFE13074100A6
S3151C0044A09386CCE913060900930581001385090040
S3151C0044B0EFD0CFE99307F0FF930414006304F502D1
S3151C0044C08327C101B387A700232EF1006FF0DFDD20
S3151C0044D0B387A7021384050093061000B387E70071
S3151C0044E06FF01FF68357C9001305F0FF93F70704F7
S3151C0044F0E39407D40325C1016FF01FD4130101FFF8
S3151C004500232481002322910013040500B7E4031C15
S3151C0045101385050093050600138606002326110045
S3151C00452023A804A8EF0010359307F0FF6318F500C5
S3151C00453083A704A9638407002320F4008320C100F9
S3151C00454003248100832441001301010167800000BC
S3151C004550130101FF2324810023229100130405006B
S3151C004560B7E4031C138505009305060023261100DA
S3151C00457023A804A8EF0010209307F0FF6318F5008A
S3151C00458083A704A9638407002320F4008320C100A9
S3151C004590032481008324410013010101678000006C
S3151C0045A0130101FF2324810023229100130405001B
S3151C0045B0B7E4031C138505002326110023A804A8B1
S3151C0045C0EF0090219307F0FF6318F50083A704A959
S3151C0045D0638407002320F4008320C1000324810088
S3151C0045E083244100130101016780000083A7C5FFD6
S3151C0045F01385C7FF63D80700B385A50083A70500ED
S3151C0046003305F500678000001387060013080600B3
S3151C0046109308050093870500639E060C63FAC51272
S3151C004620B7060100636AD620370700016366E642B7
S3151C0046301353860113078001B786021C938686389E
S3151C004640B386660083C60600130300023387E600A2
S3151C004650B306E340630CE300B395D5003357E5007E
S3151C0046603318D600B367B700B318D50093560801A4
S3151C00467033D5D702131708011357070113D60801A0
S3151C004680B3F7D702B305A70293970701B3E7C70091
S3151C00469063FCB700B38707011306F5FF63E4070144
S3151C0046A063E8B73E13050600B387B74033D6D70277
S3151C0046B09398080193D80801B3F7D7023307C702AA
S3151C0046C093970701B3E7170163FEE700B307F800EA
S3151C0046D09306F6FF63E607011306E6FF63E4E700AD
S3151C0046E013860600131505013365C50093050000E6
S3151C0046F06780000063F8D5009305000013050000D1
S3151C00470067800000B707010063E4F614B7070001D1
S3151C00471063E2F63213D8860113078001B787021CA1
S3151C00472093878738B387070103C8070093070002DE
S3151C0047303308E800B38807416398071D63E4B63263
S3151C0047403335C5001345150093050000678000002E
S3151C004750631606009307100033D8C702B70701007B
S3151C0047606360F80CB70700016362F82E9356880144
S3151C00477013078001B787021C93878738B387D70036
S3151C00478083C7070093060002B387E7003386F6400B
S3151C004790639AF60C13130801B3870541135E0801CF
S3151C0047A0135303019305100013D7080133D5C70310
S3151C0047B0B3F7C703B306650293970701B3E7E70090
S3151C0047C063FCD700B38707011307F5FF63E40701F2
S3151C0047D063E6D72C13050700B387D74033D7C70327
S3151C0047E09398080193D80801B3F7C70333036702EC
S3151C0047F093970701B3E7170163FE6700B307F80039
S3151C0048009306F7FF63E607011307E7FF63E46700F8
S3151C00481013870600131505013365E5006780000044
S3151C0048209307F00F93060800E3F607F593568800E6
S3151C004830130780006FF01FF49306F00F1303060096
S3151C004840E3FCC6DE13538600130780006FF0DFDE21
S3151C0048509307F00F63F6D71E13D886001307800044
S3151C0048606FF0DFEB3318C80033D7F500135E080171
S3151C004870B356C7031313080113530301B395C5009D
S3151C004880B318C500B357F500B3E7B70093D50701B6
S3151C0048903377C7033306D302131707013367B700F1
S3151C0048A0637EC700330707019385F6FF636E071DFA
S3151C0048B0637CC71C9386E6FF330707013307C74093
S3151C0048C03355C7031396070113560601B377C7035F
S3151C0048D03307A30293970701B3E7C70063FEE700FC
S3151C0048E0B38707011306F5FF63E8071963F6E71894
S3151C0048F01305E5FFB387070193950601B387E740C8
S3151C004900B3E5A5006FF05FEAB3570601B39616012F
S3151C004910B3E6D70033D7050113DE0601B357C70329
S3151C00492013930601B395150113530301335805015F
S3151C0049303368B800935E0801331616013377C70334
S3151C004940B305F302131707013367D701637EB7005C
S3151C0049503307D700938EF7FF6364D7126372B712BF
S3151C0049609387E7FF3307D7003307B740B355C70311
S3151C00497013180801135808013377C7033303B3020E
S3151C0049801317070133670701637E67003307D700D8
S3151C0049901388F5FF636ED70C637C670C9385E5FF64
S3151C0049A03307D70093970701370F0100B3E7B7000A
S3151C0049B09306FFFFB3F5D70013DE0701B376D600C7
S3151C0049C013560601B38ED50233076740B306DE02C3
S3151C0049D013D80E01B385C502B385D500B305B8003F
S3151C0049E0330ECE0263F4D500330EEE0193D60501C9
S3151C0049F0B386C601636AD7026308D700138507000E
S3151C004A009305000067800000B70601009386F6FF39
S3151C004A1033F7D50013170701B3FEDE003315150156
S3151C004A203307D701E37CE5FC1385F7FF93050000EC
S3151C004A306780000013D80601130700016FF01FCE14
S3151C004A4013880600130700006FF05FCD935608010C
S3151C004A50130700016FF01FD2135306011307000141
S3151C004A606FF09FBD930500001305100067800000C2
S3151C004A70930508006FF01FF3130506006FF0DFE7C0
S3151C004A8093870E006FF05FEE938605006FF01FE3B1
S3151C004A901305E5FFB38707016FF01FC11305E5FF7B
S3151C004AA0B38707016FF05FD39387060013080600D0
S3151C004AB09308050013830500138705006390060CF5
S3151C004AC063FEC510B70601006366D61EB707000154
S3151C004AD06362F6401353860193078001B786021C56
S3151C004AE093868638B386660083C6060013030002C7
S3151C004AF0B387F600B306F340630CF3003397D50077
S3151C004B00B357F5003318D60033E7E700B318D500C2
S3151C004B1013550801B355A7021316080113560601AF
S3151C004B2093D708013377A702B305B60213170701FB
S3151C004B30B367F70063FAB700B387070163E607019B
S3151C004B4063F4B700B3870701B387B74033D7A7020F
S3151C004B509398080193D80801B3F7A7023307E60216
S3151C004B601395070133651501636AE5103305E540A6
S3151C004B703355D5009305000067800000E3EED5FE93
S3151C004B80B707010063E4F614B707000163EEF632BB
S3151C004B9013D8860113078001B787021C93878738B1
S3151C004BA0B387070103C80700930700023308E80010
S3151C004BB033870741639C071B63E4B600636AC50021
S3151C004BC0B308C540B386D5403333150133836640DD
S3151C004BD01385080093050300678000006316060012
S3151C004BE0130710003358C702370701006368E80A29
S3151C004BF0B70700016364F82C93568801930780015C
S3151C004C003787021C130787383307D700034707006B
S3151C004C1013060002B307F700B306F6406312F60C40
S3151C004C20131E0801B387054113530801135E0E01B9
S3151C004C3013D6080133D76702B3F767023307C703D6
S3151C004C4093970701B3E7C70063F8E700B38707012B
S3151C004C5063E4070163E4E72AB387E74033D76702B7
S3151C004C609398080193D80801B3F767023307C70363
S3151C004C701395070133651501637AE50033050501B4
S3151C004C80636605016374E500330505013305E540DC
S3151C004C903355D50093050000678000001307F00FFD
S3151C004CA093060800E37E07F5935688009307800059
S3151C004CB06FF01FF59306F00F13030600E3F0C6E230
S3151C004CC013538600930780006FF05FE19307F00F84
S3151C004CD063F8D72013D88600130780006FF0DFEB2C
S3151C004CE03318D80033D7F50013530801335667021F
S3151C004CF0131E0801135E0E01B395D500B357F500BC
S3151C004D00B3E7B70093D50701B318D500337767020D
S3151C004D103306CE02131707013367B700637AC70041
S3151C004D2033070701636607016374C700330707016E
S3151C004D303307C740B355670213960701135606017E
S3151C004D40B37767023307BE0293970701B3E7C70021
S3151C004D5063FAE700B387070163E6070163F4E7001C
S3151C004D60B3870701B387E7406FF09FECB396E60065
S3151C004D70B3580601B3E8D800B3D7050113DE080102
S3151C004D80B3D6C703939E08013353050193DE0E0168
S3151C004D90B395E500B365B3003313E50013DF0501D6
S3151C004DA03316E600B3F7C7033385DE029397070174
S3151C004DB0B3E7E70163FEA700B3871701138FF6FF5E
S3151C004DC063EA171363F8A7129386E6FFB3871701E6
S3151C004DD0B387A74033D5C7039395050193D5050122
S3151C004DE0B3F7C703B38EAE0293970701B3E7B700B9
S3151C004DF063FED701B38717019305F5FF63E8170F09
S3151C004E0063F6D70F1305E5FFB387170193960601C3
S3151C004E10B7020100B3E6A6001385F2FF33FEA60017
S3151C004E20935F060193D606013375A600330FAE02B7
S3151C004E30B385D7413385A60293570F01330EFE0364
S3151C004E40330EAE00B387C701B386F60363F4A7001F
S3151C004E50B3865600B70E0100938EFEFF33F5D701BD
S3151C004E6013DE070113150501337FDF01B307DE00CF
S3151C004E703305E50163E8F5026384F5023305A340B7
S3151C004E803333A300B385F540B385654033980501DC
S3151C004E903355E5003365A800B3D5E50067800000EF
S3151C004EA0E37EA3FC3306C5403335C5003305150127
S3151C004EB0B387A740130506006FF05FFC93560801E5
S3151C004EC0930700016FF0DFD313D806011307000107
S3151C004ED06FF09FCC13530601930700016FF01FC0A0
S3151C004EE013880600130700006FF01FCB13850500FF
S3151C004EF06FF0DFF193060F006FF09FEDB38707018C
S3151C004F006FF09FD5130101FF232611002324810076
S3151C004F10930890037300000013040500635A0500F0
S3151C004F2033048040EF00402C232085001304F0FF3F
S3151C004F308320C10013050400032481001301010111
S3151C004F40678000009308D0057300000063520502B9
S3151C004F50130101FF232481001304050023261100DD
S3151C004F6033048040EF004028232085006F0000009A
S3151C004F706F000000130101F7232291082326110854
S3151C004F8093840500232481089308000593050100DA
S3151C004F907300000013040500635A050033048040A7
S3151C004FA0EF008024232085001304F0FF13850400E2
S3151C004FB093050100EF00001B8320C10813050400A4
S3151C004FC0032481088324410813010109678000001A
S3151C004FD01305100067800000130101F99305810079
S3151C004FE023261106EFF01FF99307F0FF630EF50059
S3151C004FF00325C1001355D500137515008320C10662
S3151C0050001301010767800000130500006FF01FFFE6
S3151C005010130101FF23261100EF00001D8320C10090
S3151C005020930760012320F5001305F0FF130101010E
S3151C00503067800000130101FF232611002324810031
S3151C0050409308E0037300000013040500635A05006F
S3151C00505033048040EF004019232085001304F0FF21
S3151C0050608320C100130504000324810013010101E0
S3151C00507067800000130101FF2326110023248100F1
S3151C0050809308F0037300000013040500635A05001F
S3151C00509033048040EF004015232085001304F0FFE5
S3151C0050A08320C100130504000324810013010101A0
S3151C0050B06780000037E7031C832747A9130101FFFC
S3151C0050C02326110093060500639C07029308600DB6
S3151C0050D013050000730000009307F0FF6310F50230
S3151C0050E0EF0080109307C0002320F5001305F0FF86
S3151C0050F08320C1001301010167800000232AA7A891
S3151C005100832747A99308600DB386F600138506000E
S3151C00511073000000E316D5FC232AA7A813850700F5
S3151C0051206FF01FFD130101FF2326110023248100AC
S3151C005130930800047300000013040500635A05005D
S3151C00514033048040EF00400A232085001304F0FF3F
S3151C0051508320C100130504000324810013010101EF
S3151C0051606780000083A7050003A785042310F500AC
S3151C00517083A785002311F50083A705012322F500CB
S3151C00518083A745012314F50083A785012315F50084
S3151C00519083A7C5012316F50083A705022317F5006F
S3151C0051A083A705032328F50083A705042326F504F6
S3151C0051B083A785032324F50483A7C504232CE500B4
S3151C0051C003A78505232EF50083A7C5052324E50221
S3151C0051D003A785062326F50283A7C506232CE5020D
S3151C0051E0232EF50267800000B797021C03A547BD56
S3151C0051F067800000397122DE80002A882E85B285E0
S3151C0052003686BA863E87C287A307F4FCAA8723077D
S3151C005210F4FCAE872316F4FCB287A305F4FCB68710
S3151C0052202305F4FCBA87A304F4FCA30704FE232479
S3151C00523004FE232204FE232004FE8347A4FC8D8B3C
S3151C005240A30FF4FC834794FC230FF4FC8347F4FC64
S3151C00525091E7B707101A2324F4FE1DA80347F4FC94
S3151C00526085476319F700B707101A9387070223248B
S3151C005270F4FE39A80347F4FC89476319F700B707FE
S3151C005280101A938707042324F4FE19A0232404FE72
S3151C005290832784FE638B07180347E4FC914763F25C
S3151C0052A0E7188357C4FC638A07160357C4FC930785
S3151C0052B0F07F63E4E7160347B4FCBD4763EBE714D2
S3151C0052C0832784FE9843B70708005D8F832784FED7
S3151C0052D098C3832784FE9C4313E74700832784FED9
S3151C0052E098C3832784FE9C4313F7B7FF832784FE4A
S3151C0052F098C3832784FE9843B707FCFFFD177D8F51
S3151C005300832784FE98C3832784FE98438347F4FD32
S3151C0053105D8F832784FE98C3832784FE9C430347A3
S3151C005320E4FD12075D8F832784FE98C3832784FEC2
S3151C0053309843832784FE98C3832784FE910723A062
S3151C0053400700232004FE8357C4FC92073E8783274D
S3151C00535004FED98F2320F4FE032704FEB70700089A
S3151C005360D98F2320F4FE8347B4FCF2073E8783279C
S3151C00537004FED98F2320F4FE832784FEA10703276E
S3151C00538004FE98C3832784FEB10723A00700832746
S3151C00539084FEC1071307400698C3832784FED107E2
S3151C0053A01307902698C3832784FE9C4313E7470064
S3151C0053B0832784FE98C3832784FE9843B70704007B
S3151C0053C05D8F832784FE98C30DA0832744FE850723
S3151C0053D02322F4FE032744FEC1676368F700954742
S3151C0053E0A307F4FE232204FE39A0832784FEC107EB
S3151C0053F09C43E3DC07FC8347F4FE85EF832784FE8E
S3151C0054009843B707F8FFFD177D8F832784FE98C343
S3151C0054100DA08547A307F4FE29A88947A307F4FE18
S3151C00542011A88D47A307F4FE31A09147A307F4FEEC
S3151C00543011A001008347F4FE3E85725421618280CF
S3151C005440397106DE22DC8000232004FEB747101AC1
S3151C005450232EF4FC8327C4FD054723AEE70E232C1D
S3151C00546004FCA30704FEEF604002B707101A232AA8
S3151C005470F4FCB707101A938707022328F4FCB70716
S3151C005480101A938707042326F4FC85470147854693
S3151C00549013068002A9450145B13B8947014785464C
S3151C0054A013068002A9450545B13391470147854638
S3151C0054B013068002A9450945353B232404FE0DA885
S3151C0054C01387C19A832784FE8A07BA973757001C0D
S3151C0054D01307876A98C31387C1A2832784FE8A078A
S3151C0054E0BA9723A00700832784FE85072324F4FE8E
S3151C0054F0032784FEFD47E3D5E7FC9387C19A3757FC
S3151C005500001C13076768D8CF9387C19A37B7001C4E
S3151C0055101307E7A6D8D7EF5070712D45EF50C0483A
S3151C005520EF505055F3274030BE808687232CF4FC61
S3151C005530A30304FE31A8034774FEF1679385072075
S3151C0055403A85EF90E045834774FE8507A303F4FE76
S3151C005550034774FE8947E310F7FE230304FE39A8AC
S3151C005560034764FEB7270600938507A83A85EF60B4
S3151C005570405C834764FE85072303F4FE034764FEF1
S3151C0055808947E31FF7FCA30704FEE1A08347F4FE4B
S3151C0055903E85EFA011480347F4FEB72726009385E6
S3151C0055A0075A3A85EF7000398347F4FE0146814558
S3151C0055B03E85EF70A0668347F4FE81453E85EF70FD
S3151C0055C0F0672320A4FE032704FEFD576305F7009E
S3151C0055D0832704FE99EB0347F4FEB7E7031C938766
S3151C0055E087A9BA972380070099A80347F4FEB7E753
S3151C0055F0031C938787A9BA9705472380E70083274F
S3151C00560004FE13F7F70F930700026311F702034713
S3151C005610F4FEB7E7031C9387C7A9BA9705472380EF
S3151C005620E700B7E7031C238207AA11A80347F4FE69
S3151C005630B7E7031C9387C7A9BA972380070083473C
S3151C005640F4FE3E85EFA0B1548347F4FE8507A307FD
S3151C005650F4FE0347F4FE8547E3FAE7F2D126054537
S3151C005660EF50200AEF508003AA873E879307200637
S3151C0056706306F70013052006EF5080040100F25064
S3151C005680625421618280011106CE22CC0010232691
S3151C005690A4FEEF30703FAA8799C3EF30B05A0100C1
S3151C0056A0F240624405618280797122D626D40018A4
S3151C0056B0232EA4FC232604FE0327C4FDC947630C22
S3151C0056C0F7000327C4FDCD476307F7000327C4FD76
S3151C0056D0FD47631FF704B7E7031C83A707AA1387B5
S3151C0056E01700B7E7031C23A0E7AAB7E7031C03A709
S3151C0056F007AACD4763FFE704F3274030BE84A6877D
S3151C0057002326F4FE8327C4FD0327C4FEB357F700E4
S3151C005710858BA1C38327C4FD0547B317F700232434
S3151C005720F4FE832784FEF3B747302324F4FE15A02A
S3151C0057301387C1A28327C4FD8A07BA979C43138784
S3151C00574017009386C1A28327C4FD8A07B69798C300
S3151C00575011A0010001003254A254456182804111FE
S3151C00576006C622C40008856713858738EF50B054D7
S3151C0057700100B240224441018280797106D622D4AE
S3151C0057800018232EA4FC232604FE8327C4FDFD8BB0
S3151C0057901387C19A8A07BA9798438327C4FDFD8B42
S3151C0057A03E8502970100B250225445618280797170
S3151C0057B006D622D40018AA87A30FF4FC232604FEBF
S3151C0057C0B727101A2324F4FE832784FE9C4703471D
S3151C0057D0F4FD930600083397E6005D8F832784FE4D
S3151C0057E098C7832784FE9C470347F4FD930600084D
S3151C0057F03397E6001347F7FF7D8F832784FE98C7F0
S3151C005800832784FE9C430347F4FD930600083397C5
S3151C005810E6005D8F832784FE98C381455545EF506E
S3151C005820503181455945EF50D03081456545EF5083
S3151C0058305030232604FE29A88327C4FEF50781457C
S3151C0058403E85EF50102F8327C4FE85072326F4FEC2
S3151C0058500327C4FE9D47E3D1E7FE0100B250225444
S3151C00586045618280797122D60018AA87AE86328756
S3151C005870231FF4FCB687231EF4FCBA87A30DF4FC85
S3151C005880231704FE231604FE8357E4FD8D072317F6
S3151C005890F4FE8357C4FD8D072316F4FEB727101A92
S3151C0058A0938707402324F4FE832784FE23A2070242
S3151C0058B08357C4FE139707018357E4FED98F3E878F
S3151C0058C0832784FE98D7832784FE41671307171006
S3151C0058D098DB8357C4FD91073E87832784FED8D760
S3151C0058E0832784FE0547D8DB0347B4FD8547631C25
S3151C0058F0F700832784FE9853B70702005D8F832722
S3151C00590084FE98D315A80347B4FD9147631BF70083
S3151C005910832784FE9853C1675D8F832784FE98D3A3
S3151C00592021A80347B4FDA1476318F700832784FE0B
S3151C0059309853832784FE98D3832784FE9C5313E7AE
S3151C0059400740832784FE98D3010032544561828028
S3151C005950797122D60018232EA4FC232CB4FC232AEE
S3151C005960C4FC232604FEA30504FE8327C4FDC2072C
S3151C005970C18391072314F4FE832784FDC207C183C8
S3151C00598091072313F4FEB727101A93870740232089
S3151C005990F4FE832704FE032744FD98C3035784FEA5
S3151C0059A0835764FEB307F7023E87832704FED8C3DA
S3151C0059B0832704FE494798C7832704FE9853B707D5
S3151C0059C000805D8F832704FE9C535D8F832704FE16
S3151C0059D098D3232604FE05A08327C4FE8507232609
S3151C0059E0F4FE0327C4FEB70710006366F7008D4755
S3151C0059F0A305F4FE29A0832704FEDC43F1FF8327BD
S3151C005A0004FE9853B707008093C7F7FF7D8F832743
S3151C005A1004FE98D38347B4FE3E853254456182808A
S3151C005A20411106C622C4000801455133054693059B
S3151C005A3000141305000F3D35B797021C138607E8A3
S3151C005A40930500141305000F21370100B2402244B0
S3151C005A5041018280797106D622D40018232EA4FC1B
S3151C005A60B797021C03C787BD85476318F706B7E7B8
S3151C005A70031C03A787AAFD576315F7040326C4FD59
S3151C005A80B797021C83A7C7BD938617003797021CBE
S3151C005A90232ED7BC1377F60F2380E700B797021C7B
S3151C005AA003A7C7BDB797021C83A707BE6319F702D6
S3151C005AB0B797021C37E7031C1307C7AA23AEE7BC1C
S3151C005AC039A8B7E7031C83A787AA1307C4FD3A8620
S3151C005AD085453E85EF90600F21A0010011A00100B5
S3151C005AE00100B250225445618280411106C622C46F
S3151C005AF00008354585372945B13F0100B24022448F
S3151C005B0041018280011106CE22CC00102326A4FE60
S3151C005B10B797021C03C787BD8547631CF70003277D
S3151C005B20C4FEA9476314F700C93721A00325C4FE88
S3151C005B3015370100F240624405618280011106CED0
S3151C005B4022CC00102326A4FE0325C4FEEFC0DFB022
S3151C005B50AA8785073E868325C4FE1385C1EAEFB056
S3151C005B60BF83B7E7031C03C767AA85476314F702FD
S3151C005B701385C1EAEF00F072AA879DC321A883276B
S3151C005B80C4FE838707003E85B53F8327C4FE850771
S3151C005B902326F4FE8327C4FE83870700EDF311A09A
S3151C005BA00100F240624405618280011106CE22CCBE
S3151C005BB000102326A4FE8327C4FEBD8B2326F4FED9
S3151C005BC08327C4FE938707032326F4FE0327C4FEFC
S3151C005BD09307900363D8E7008327C4FE9387770255
S3151C005BE02326F4FE0325C4FE313F0100F240624425
S3151C005BF005618280011106CE22CC00102326A4FE4C
S3151C005C008327C4FE91833E854D378327C4FE3E857C
S3151C005C10693F0100F240624405618280011106CE93
S3151C005C2022CC00102326A4FE8327C4FEA1833E8516
S3151C005C30D1370325C4FE7D3F0100F2406244056155
S3151C005C408280011106CE22CC00102326A4FE8327B7
S3151C005C50C4FEC1833E85D9370325C4FEC137010066
S3151C005C60F240624405618280011122CE00109387A6
S3151C005C70C1FD03A787179387C1FD83A747176350E9
S3151C005C80F7029387C1FD83A787171387C1FD9387E7
S3151C005C90C7058A07BA97DC472326F4FE19A02326D4
S3151C005CA004FE8327C4FE3E85724405618280797199
S3151C005CB022D60018232EA4FC232CB4FC9387C1FDEA
S3151C005CC083A787171387C1FD9387C7058A07BA97CA
S3151C005CD0DC472324F4FE8327C4FD032784FE98C3D4
S3151C005CE0832784FDB5C3232604FE99A0032744FEFF
S3151C005CF09307000463D9E702032744FE9307A00514
