S00F000041325F426F6F742E73726563AF
S3151A0000006F00C0096F0080096F0040096F00000970
S3151A0000106F00C0086F0080086F0040086F00000864
S3151A0000206F00C0076F0080076F0040076F00000758
S3151A0000306F00C0066F0080066F0040066F0000064C
S3151A0000406F00C0056F0080056F0040056F00000540
S3151A0000506F00C0046F0080046F0040046F00000434
S3151A0000606F00C0036F0080036F0040036F00000328
S3151A0000706F00C0026F0080026F0040026F0000021C
S3151A0000806F0080006F00000017E10702130141FE9E
S3151A0000906F00803613010600678005007300203052
S3151A0000A02A8309CA83830500230073007D16050374
S3151A0000B085056DFA8280F915C2054111C18122C4DE
S3151A0000C006C62A84952A8347140003470400A20702
S3151A0000D0D98F296713077750639BE708834764000C
S3151A0000E0130740026398E702034734008347240044
S3151A0000F00345540022075D8F834744000346740064
S3151A000100930584002244B240C207D98F62055D8DD9
S3151A000110410179B713076002639BE7043715001A82
S3151A0001201305858E49220347340083472400034565
S3151A000130540022075D8F834744006205C207D98F90
S3151A0001405D8DC12A3715001A13058592A92A834788
S3151A000150340003472400A207D98F034744004207F5
S3151A0001605D8F83475400E207D98F829701A0B24068
S3151A000170224441018280411106C622C426C24AC0BF
S3151A0001800D242DC1B7E7071C05472384E7C621248A
S3151A00019093070002631AF5002244B24092440249B8
S3151A0001A013051002410121A4FD2293073002631B95
S3151A0001B0F502B7E4071C01441389849209A8752A23
S3151A0001C0B3078900050442042380A70041806D2ADB
S3151A0001D07DF5A2852244B24002491385849292443F
S3151A0001E04101D1BDB2402244924402494101828062
S3151A0001F037E7071C8565130787A2014693851502FB
S3151A0002001305001093178600C207C183A1461398D7
S3151A000210070113580841860763530800AD8FFD1668
S3151A000220C20793F6F60FC183FDF22310F7000506EF
S3151A0002300907E319A6FC8280C16737E6071CAA8656
S3151A00024001471385F7FF130686A26343B700828018
S3151A0002503388E60003480800935785000507B3C795
S3151A00026007018607B29703D8070093178500C207B6
S3151A000270C1833345F800D1BF01112AC670008545DE
S3151A000280054506CE3525F240056182804111354570
S3151A00029006C6DD37B24029454101F9BFA94763139E
S3151A0002A0F500EDB7D1BF411122C406C62A8403054B
S3151A0002B0040009E5B240224441018280C53705048B
S3151A0002C0FDB7935745004111BD8B22C406C62A8431
S3151A0002D013079003138507036354A700138577053D
S3151A0002E0753F3D88130504039307900363D4A7004B
S3151A0002F0130574052244B24041014DB7411122C477
S3151A0003002A84218106C6753F22852244B2404101BC
S3151A0003104DBF411122C42A84418106C6C53722859A
S3151A0003202244B2404101D9BFB777101A88431375D0
S3151A000330F50782803777101A834707001375F50772
S3151A00034093F707F8C98F2300F70082808547631F42
S3151A000350F5003777101A8347470093E717002302E9
S3151A000360F700B777101AC843058982807DF937775F
S3151A000370101A83474700F99BDDB7B777101A03A5FA
S3151A00038047081375F50F8280B777101A03A5070960
S3151A0003901375F50F8280B777101AA8431375F50FE0
S3151A0003A08280B777101AE8431375F50F8280B777EC
S3151A0003B0101AA8C78280B7D5071C411141469385E2
S3151A0003C08540014506C6F12EB7D7071C03A6C740B6
S3151A0003D0BD4763CEC70011CEB24012064206B7D544
S3151A0003E0071C418293858541414541015DAE4146CF
S3151A0003F0E5B7B24041018280B707011C9C435D7183
S3151A000400B747101A054586C6A2C4A6C203A4470C46
S3151A000410CAC04EDE52DC56DA5AD85ED662D466D2D4
S3151A0004206AD06ECE253709379307200605886305E5
S3151A000430F50013052006FD3DF16593850520054552
S3151A00044031213715001A1305858FB13D6301040E44
S3151A0004503715001A13050591B935B7252600938560
S3151A000460055A01454D2A81450145852C8145014587
S3151A000470F9242800E92A09E49307E0022304F10083
S3151A000480A3040100630D0414B7C9071C85671384F6
S3151A00049009008964330994003E942320F992232E85
S3151A0004A0099023220992232204403137832709927D
S3151A0004B00328C440B7D6071C37EA071C37D9071CC6
S3151A0004C09388F7FF3306F040938606428145B707AD
S3151A0004D0001C130A0A001309090093848492639D67
S3151A0004E005050967BA97056723AE079023A20792EF
S3151A0004F023A0E79237D4071C7D3D13048441814A11
S3151A000500B70C00018327C94063EDFA043715001AA0
S3151A0005101305C592493B03250941E53B3715001AD0
S3151A00052013058592493383270941829701A0371506
S3151A000530001A130545910DB703A7C6FF63E9E7002D
S3151A00054088423A9563E9A7008505C10649BF3385EE
S3151A0005509700E37BA7FE9C423E974697B377C70060
S3151A000560E5B7B717001A13858791353B5685553364
S3151A000570B717001A138547933D334840014B513B31
S3151A000580832D4400032C0400832B8400B70700E450
S3151A000590338DFD0050446365CB00850A41049DB72F
S3151A0005A083240A9263F59B0093843B00F198139671
S3151A0005B004014182637B9D01EE856285DD22A69D3B
S3151A0005C0269CB38B9B40050BF1B793850900628570
S3151A0005D0C92A2686938509006E85D934CDB7093975
S3151A0005E0B747101A0547F8DB37A90700B744101A98
S3151A0005F0854937EA071C13040912FC586384370124
S3151A000600E858013B7D14853E6DF883478AC6E5F79F
S3151A00061028005139CDB73727101A14479147339501
S3151A000620A700C98E14C714479347F5FFF58F1CC741
S3151A0006301C435D8DB7574C00938707B4B3D7B702DF
S3151A00064008C337E7071C0145A304F7C68280372675
S3151A000650101A03478618B7E6071C930706183D9B18
S3151A0006602304E618034786193D9B230CE61803470D
S3151A000670861A3D9B2304E61A83C696C637E7071CD5
S3151A000680130787C214C3B706001054C3B706072048
S3151A0006909386F60914C7B70647708D0654C7B70668
S3151A0006A00090850614CB2320A6189146D4C38346F8
S3151A0006B0861893E606012304D61898D35147D8D339
S3151A0006C00347861A136707012304E61A3727101AEF
S3151A0006D093070718DC43EDFF8280B7273400938708
S3151A0006E037043E951E058347850237E7071C0347DD
S3151A0006F097C6BD9B2304F5028347850293E7070431
S3151A0007002304F502B7E7071C938787C298C33707EE
S3151A0007100010D98D370707201307670698C73707BA
S3151A000720009005071CD1CCC3D8C7C1475CD18347F3
S3151A000730850293E707012304F50201458280B7274C
S3151A0007403400938737043E951E058347850237E79B
S3151A000750071C034797C6BD9B2304F50283478502E8
S3151A00076093E707042304F502B7E7071C938787C2A2
S3151A00077098C337070010D98D37070720130797092B
S3151A00078098C73707009005071CD1CCC3D8C7C147ED
S3151A0007905CD18347850293E707012304F5020145D5
S3151A0007A082803728101A03478818B7E6071CB70835
S3151A0007B007203D9B2304E8180347881937030F209F
S3151A0007C0930708183D9B230CE8180347881A3D9B84
S3151A0007D02304E81A83C696C637E7071C130787C287
S3151A0007E014C3B706001054C39386380014C7935619
S3151A0007F08500C206C1821375F50FB3E66600336526
S3151A000800150154C708CB9306F6FF37054770C98EEC
S3151A00081054CBB7060090850614CF2320B818D0C338
S3151A0008208346881893E606012304D81898D3714785
S3151A000830D8D30347881A136707012304E81A3727F8
S3151A000840101A93070718DC43EDFF82803727101A10
S3151A00085014478547B397A700DD8E14C7104793C66A
S3151A000860F7FFF18E14C71443D58F1CC3B72734006C
S3151A000870938717043E95B7574C00938707B4B3D797
S3151A000880B7021E05C207C1832313F5025C5193E70B
S3151A00089067005CD15C5193E707015CD15C5193E721
S3151A0008A007105CD15C5193E707205CD10145828021
S3151A0008B0B7273400938717043E9593177500014599
S3151A0008C0D84B11EF90CBCCCB03C78701136707011F
S3151A0008D0238CE700D84B11E7420541818280050532
S3151A0008E0C5B70505C5BF00000A49324320424C2048
S3151A0008F04A4D5020000000000A413220426F6F74A0
S3151A0009006C6F6164657220426F6F7473656C3D001B
S3151A00091031000000300000000A4C6F6164696E678E
S3151A0009202053656374696F6E200000000A4A756D5C
S3111A00093070696E6720746F2000000000CA
S7051A000000E0
