S00F000041325F426F6F742E73726563AF
S3151A0000006F00C0096F0080096F0040096F00000970
S3151A0000106F00C0086F0080086F0040086F00000864
S3151A0000206F00C0076F0080076F0040076F00000758
S3151A0000306F00C0066F0080066F0040066F0000064C
S3151A0000406F00C0056F0080056F0040056F00000540
S3151A0000506F00C0046F0080046F0040046F00000434
S3151A0000606F00C0036F0080036F0040036F00000328
S3151A0000706F00C0026F0080026F0040026F0000021C
S3151A0000806F0080006F00000017E10702130141FE9E
S3151A0000906F00A04F13010600678005007300203019
S3151A0000A02A8309CA83830500230073007D16050374
S3151A0000B085056DFA828001114AC837E9071C52C4B0
S3151A0000C0130A99C64EC683490A0022CC06CE26CAF8
S3151A0000D085472A84130999C66385F9068347140046
S3151A0000E003470400A207D98F29671307775063922B
S3151A0000F0E70483476400130740026392E70803473D
S3151A0001003400834724000345540022075D8F834732
S3151A0001104400034674006205C207D98F930584000A
S3151A0001205D8DBD3F0347090085471305100363001C
S3151A000130F704F2406244D2444249B249224A05615E
S3151A0001408280AE84F915C205C181AD22A29403C775
S3151A000150E4FF83C7F4FF2207D98FC207C183E38F4F
S3151A000160A7F683470A00E39637FD13050003624490
S3151A000170F240D2444249B249224A05617DA4130784
S3151A0001806002E391E7FA3715001A1305C5A0512A3A
S3151A00019003473400834724000345540022075D8F22
S3151A0001A0834744006205C207D98F5D8DCD22371564
S3151A0001B0001A1305C5A2B522834734000347240043
S3151A0001C0A207D98F0347440042075D8F834754001D
S3151A0001D0E207D98F829701A0411106C622C426C208
S3151A0001E04AC0352C35CDB7E7071C0544238487C684
S3151A0001F00D24E547631EF500B7E7071CA38407C657
S3151A0002002244B2409244024913051002410131AC0C
S3151A0002100924930700026317F500B7E7071CA3849E
S3151A00022087C6F9BFFD2293073002631BF502B7E4AE
S3151A000230071C01441389849209A8752AB3078900F1
S3151A000240050442042380A70041806D2A7DF5A28504
S3151A0002502244B24002491385849292444101A1BDB7
S3151A000260B2402244924402494101828037E7071C70
S3151A0002708565130787A20146938515021305001093
S3151A00028093178600C207C183A1461398070113580C
S3151A0002900841860763530800AD8FFD16C20793F609
S3151A0002A0F60FC183FDF22310F70005060907E319B5
S3151A0002B0A6FC8280C16737E6071CAA860147138502
S3151A0002C0F7FF130686A26343B70082803388E600D7
S3151A0002D003480800935785000507B3C70701860721
S3151A0002E0B29703D8070093178500C207C18333450F
S3151A0002F0F800D1BF01112AC670008545054506CEFC
S3151A000300D92DF240056182804111354506C6DD3781
S3151A000310B24029454101F9BFA9476313F500EDB764
S3151A000320D1BF411122C406C62A840305040009E571
S3151A000330B240224441018280C5370504FDB793575E
S3151A00034045004111BD8B22C406C62A8413079003A1
S3151A000350138507036354A70013857705753F3D88F0
S3151A000360130504039307900363D4A70013057405B2
S3151A0003702244B24041014DB7411122C42A84218137
S3151A00038006C6753F22852244B24041014DBF41112E
S3151A00039022C42A84418106C6C53722852244B24020
S3151A0003A04101D9BFB777101A88431375F5078280AA
S3151A0003B03777101A834707001375F50793F707F867
S3151A0003C0C98F2300F70082808547631FF5003777A8
S3151A0003D0101A8347470093E717002302F700B777E7
S3151A0003E0101AC843058982807DF93777101A834710
S3151A0003F04700F99BDDB7B777101A03A54708137597
S3151A000400F50F8280B777101A03A507091375F50F2A
S3151A0004108280B777101AA8431375F50F8280B777BB
S3151A000420101AE8431375F50F8280B777101AA8C702
S3151A0004308280411126C285649385844022C441462E
S3151A0004402A84AA95014506C6A294BD2903A6C440C4
S3151A000450BD4763CEC70011CE856593858541A295A2
S3151A0004602244B2409244120641454101B1A941467D
S3151A000470E5B7B240224492444101828039714ED680
S3151A000480856926DA4AD85AD02A8993848941096B0A
S3151A00049056D26AC806DE22DC52D45ECE62CC66CA50
S3151A0004A06EC6CA947937814ACA994A9B370D000192
S3151A0004B083A7C94063E3FA023715001A130505A381
S3151A0004C08D3503A50941E1353715001A1305C5A25D
S3151A0004D0893D83A70941829701A0B717001A138588
S3151A0004E0C7A1813556856535B717001A138587A3AF
S3151A0004F00D3DC840B70B00E4014C513D03AA440018
S3151A00050083AC040083AD8400D29BD4446365DC00BB
S3151A000510850AC10471BF03240B9263F58D001384F7
S3151A0005203D007198228663FBAB01D2856685692EDA
S3151A000530229AA29CB38D8D40050CC1BFCA856685C9
S3151A00054061262286CA855285A13EDDB705C585472D
S3151A0005506305F50289476317F502B707101A9387D9
S3151A00056007049843B7060800558F98C398436D9B9E
S3151A00057098C38280B707101AEDB7B707101A938770
S3151A0005800702C5B78327000002907971014506D67E
S3151A00059022D426D24AD04ECE52CC4D3F05457D376F
S3151A0005A009456D37B707011C9C430545B747101A0D
S3151A0005B003A4470C113DFD339307200605886305EE
S3151A0005C0F50013052006ED33F165938505200545DB
S3151A0005D04D263715001A130505A4A1333715001A27
S3151A0005E01305C5A43D3B3715001A130505A5153B7A
S3151A0005F03715001A1305C5A52D3355C43715001A14
S3151A000600130545A7393BB72526009385055A014593
S3151A000610352281450145ED2281450145A12428004F
S3151A000620912A09E49307E0022304F100A3040100C6
S3151A0006304DC437C5071C8567130405008964330939
S3151A0006409400130505003E942320F992232E09904F
S3151A0006502322044023220992E93B8327099203287D
S3151A000660C44037D7071C9388F7FFB306F040130721
S3151A000670074201463705001C93848492631A0603BF
S3151A0006808967AA97056623A0C792130696512A96D2
S3151A000690B705001A23AE079023A20792130606403F
S3151A0006A09385C547C53A3715001A130585A799BF05
S3151A0006B08327C7FF6369F5000C43BE956369B500C6
S3151A0006C00506410765BFB3059500E3FBB7FE0C4364
S3151A0006D0AE97C69733F5D700E5B7493EB747101A0E
S3151A0006E083A6C70D0547130570026388E60083A71C
S3151A0006F0C70D898B81C713058002053BB747101AA8
S3151A0007000547F8DBB7A407003749101A854937EAAF
S3151A000710071C138404128327490763883701B7878E
S3151A000720001C93870708829701A07D14753465F417
S3151A00073083478AC6F9FF2800ED36E1BF3727101A14
S3151A000740144791473395A700C98E14C71447934780
S3151A000750F5FFF58F1CC71C435D8DB7574C00938761
S3151A00076007B4B3D7B70208C337E7071C01452305F1
S3151A000770F7C682803726101A03478618B7E6071C6B
S3151A000780930706183D9B2304E618034786193D9BD3
S3151A000790230CE6180347861A3D9B2304E61A83C6DA
S3151A0007A0A6C637E7071C130787C214C3B706001075
S3151A0007B054C3B70607209386F60914C7B7064770B7
S3151A0007C08D0654C7B7060090850614CB2320A618A3
S3151A0007D09146D4C38346861893E606012304D6188F
S3151A0007E098D35147D8D30347861A136707012304A8
S3151A0007F0E61A3727101A93070718DC43EDFF82808B
S3151A000800B7273400938737043E951E05834785021A
S3151A00081037E7071C0347A7C6BD9B2304F502834780
S3151A000820850293E707042304F502B7E7071C9387A3
S3151A00083087C298C337070010D98D370707201307C1
S3151A000840670698C73707009005071CD1CCC3D8C7C7
S3151A000850C1475CD18347850293E707012304F50252
S3151A00086001458280B7273400938737043E951E05C3
S3151A0008708347850237E7071C0347A7C6BD9B230490
S3151A000880F5028347850293E707042304F502B7E7BF
S3151A000890071C938787C298C337070010D98D370765
S3151A0008A007201307970998C73707009005071CD121
S3151A0008B0CCC3D8C7C1475CD18347850293E70701E2
S3151A0008C02304F502014582803728101A034788182F
S3151A0008D0B7E6071CB70807203D9B2304E818034709
S3151A0008E0881937030F20930708183D9B230CE8181D
S3151A0008F00347881A3D9B2304E81A83C6A6C637E718
S3151A000900071C130787C214C3B706001054C393866D
S3151A000910380014C793568500C206C1821375F50F9F
S3151A000920B3E666003365150154C708CB9306F6FF7E
S3151A00093037054770C98E54CBB7060090850614CF73
S3151A0009402320B818D0C38346881893E606012304D1
S3151A000950D81898D37147D8D30347881A136707014B
S3151A0009602304E81A3727101A93070718DC43EDFFF2
S3151A00097082803727101A14478547B397A700DD8E4A
S3151A00098014C7104793C6F7FFF18E14C71443D58FB1
S3151A0009901CC3B7273400938717043E95B7574C00E4
S3151A0009A0938707B4B3D7B7021E05C207C1832313A9
S3151A0009B0F5025C5193E767005CD15C5193E7070136
S3151A0009C05CD15C5193E707105CD15C5193E7072021
S3151A0009D05CD101458280B7273400938717043E9568
S3151A0009E0931775000145D84B11EF90CBCCCB03C7A3
S3151A0009F0870113670701238CE700D84B11E74205D5
S3151A000A00418182800505C5B70505C5BF0A49324326
S3151A000A1020424C204A4D5020000000000A4C6F61BB
S3151A000A2064696E672053656374696F6E20000000EF
S3151A000A300A4A756D70696E6720746F20000000008F
S3151A000A404A616E20203320323032320020200000D4
S3151A000A5030373A34303A3432000000000A41322034
S3151A000A60426F6F746C6F6164657220426F6F747334
S3111A000A70656C3D003100000030000000EB
S7051A000000E0
